{
  "_format": "hh-sol-artifact-1",
  "contractName": "EHiringSystem",
  "sourceName": "contracts/EHiringSystem.sol",
  "abi": [
    {
      "inputs": [],
      "stateMutability": "nonpayable",
      "type": "constructor"
    },
    {
      "anonymous": false,
      "inputs": [
        {
          "indexed": false,
          "internalType": "address",
          "name": "candidateAddress",
          "type": "address"
        },
        {
          "indexed": false,
          "internalType": "string",
          "name": "fullName",
          "type": "string"
        }
      ],
      "name": "CandidateRegistered",
      "type": "event"
    },
    {
      "anonymous": false,
      "inputs": [
        {
          "indexed": false,
          "internalType": "address",
          "name": "candidateAddress",
          "type": "address"
        }
      ],
      "name": "CandidateVerified",
      "type": "event"
    },
    {
      "anonymous": false,
      "inputs": [
        {
          "indexed": false,
          "internalType": "uint256",
          "name": "jobId",
          "type": "uint256"
        },
        {
          "indexed": false,
          "internalType": "address",
          "name": "candidateAddress",
          "type": "address"
        }
      ],
      "name": "JobApplied",
      "type": "event"
    },
    {
      "anonymous": false,
      "inputs": [
        {
          "indexed": false,
          "internalType": "uint256",
          "name": "jobId",
          "type": "uint256"
        },
        {
          "indexed": false,
          "internalType": "string",
          "name": "title",
          "type": "string"
        }
      ],
      "name": "JobPosted",
      "type": "event"
    },
    {
      "anonymous": false,
      "inputs": [
        {
          "indexed": false,
          "internalType": "uint256",
          "name": "jobId",
          "type": "uint256"
        },
        {
          "indexed": false,
          "internalType": "address",
          "name": "candidateAddress",
          "type": "address"
        }
      ],
      "name": "OfferAccepted",
      "type": "event"
    },
    {
      "anonymous": false,
      "inputs": [
        {
          "indexed": false,
          "internalType": "uint256",
          "name": "jobId",
          "type": "uint256"
        },
        {
          "indexed": false,
          "internalType": "address",
          "name": "candidateAddress",
          "type": "address"
        }
      ],
      "name": "OfferMade",
      "type": "event"
    },
    {
      "inputs": [],
      "name": "acceptOffer",
      "outputs": [],
      "stateMutability": "nonpayable",
      "type": "function"
    },
    {
      "inputs": [
        {
          "internalType": "uint256",
          "name": "_jobId",
          "type": "uint256"
        }
      ],
      "name": "applyForJob",
      "outputs": [],
      "stateMutability": "nonpayable",
      "type": "function"
    },
    {
      "inputs": [
        {
          "internalType": "uint256",
          "name": "",
          "type": "uint256"
        }
      ],
      "name": "candidateAddresses",
      "outputs": [
        {
          "internalType": "address",
          "name": "",
          "type": "address"
        }
      ],
      "stateMutability": "view",
      "type": "function"
    },
    {
      "inputs": [
        {
          "internalType": "address",
          "name": "",
          "type": "address"
        }
      ],
      "name": "candidates",
      "outputs": [
        {
          "internalType": "string",
          "name": "fullName",
          "type": "string"
        },
        {
          "internalType": "string",
          "name": "email",
          "type": "string"
        },
        {
          "internalType": "string",
          "name": "education",
          "type": "string"
        },
        {
          "internalType": "string",
          "name": "experience",
          "type": "string"
        },
        {
          "internalType": "bool",
          "name": "isVerified",
          "type": "bool"
        },
        {
          "internalType": "bool",
          "name": "isEmployee",
          "type": "bool"
        }
      ],
      "stateMutability": "view",
      "type": "function"
    },
    {
      "inputs": [],
      "name": "getAllCandidates",
      "outputs": [
        {
          "internalType": "address[]",
          "name": "",
          "type": "address[]"
        }
      ],
      "stateMutability": "view",
      "type": "function"
    },
    {
      "inputs": [],
      "name": "getAllJobs",
      "outputs": [
        {
          "internalType": "uint256[]",
          "name": "",
          "type": "uint256[]"
        }
      ],
      "stateMutability": "view",
      "type": "function"
    },
    {
      "inputs": [],
      "name": "getAllOffers",
      "outputs": [
        {
          "internalType": "address[]",
          "name": "",
          "type": "address[]"
        }
      ],
      "stateMutability": "view",
      "type": "function"
    },
    {
      "inputs": [],
      "name": "getVerifiedCandidates",
      "outputs": [
        {
          "internalType": "address[]",
          "name": "",
          "type": "address[]"
        }
      ],
      "stateMutability": "view",
      "type": "function"
    },
    {
      "inputs": [
        {
          "internalType": "uint256",
          "name": "",
          "type": "uint256"
        }
      ],
      "name": "jobIds",
      "outputs": [
        {
          "internalType": "uint256",
          "name": "",
          "type": "uint256"
        }
      ],
      "stateMutability": "view",
      "type": "function"
    },
    {
      "inputs": [
        {
          "internalType": "uint256",
          "name": "",
          "type": "uint256"
        }
      ],
      "name": "jobs",
      "outputs": [
        {
          "internalType": "uint256",
          "name": "jobId",
          "type": "uint256"
        },
        {
          "internalType": "string",
          "name": "title",
          "type": "string"
        },
        {
          "internalType": "string",
          "name": "description",
          "type": "string"
        },
        {
          "internalType": "address",
          "name": "postedBy",
          "type": "address"
        },
        {
          "internalType": "bool",
          "name": "isActive",
          "type": "bool"
        }
      ],
      "stateMutability": "view",
      "type": "function"
    },
    {
      "inputs": [],
      "name": "nextJobId",
      "outputs": [
        {
          "internalType": "uint256",
          "name": "",
          "type": "uint256"
        }
      ],
      "stateMutability": "view",
      "type": "function"
    },
    {
      "inputs": [
        {
          "internalType": "uint256",
          "name": "",
          "type": "uint256"
        }
      ],
      "name": "offerAddresses",
      "outputs": [
        {
          "internalType": "address",
          "name": "",
          "type": "address"
        }
      ],
      "stateMutability": "view",
      "type": "function"
    },
    {
      "inputs": [
        {
          "internalType": "address",
          "name": "",
          "type": "address"
        }
      ],
      "name": "offers",
      "outputs": [
        {
          "internalType": "uint256",
          "name": "jobId",
          "type": "uint256"
        },
        {
          "internalType": "address",
          "name": "candidateAddress",
          "type": "address"
        },
        {
          "internalType": "bool",
          "name": "isOffered",
          "type": "bool"
        },
        {
          "internalType": "bool",
          "name": "isAccepted",
          "type": "bool"
        }
      ],
      "stateMutability": "view",
      "type": "function"
    },
    {
      "inputs": [],
      "name": "owner",
      "outputs": [
        {
          "internalType": "address",
          "name": "",
          "type": "address"
        }
      ],
      "stateMutability": "view",
      "type": "function"
    },
    {
      "inputs": [
        {
          "internalType": "string",
          "name": "_title",
          "type": "string"
        },
        {
          "internalType": "string",
          "name": "_description",
          "type": "string"
        }
      ],
      "name": "postJob",
      "outputs": [],
      "stateMutability": "nonpayable",
      "type": "function"
    },
    {
      "inputs": [
        {
          "internalType": "string",
          "name": "_fullName",
          "type": "string"
        },
        {
          "internalType": "string",
          "name": "_email",
          "type": "string"
        },
        {
          "internalType": "string",
          "name": "_education",
          "type": "string"
        },
        {
          "internalType": "string",
          "name": "_experience",
          "type": "string"
        }
      ],
      "name": "registerCandidate",
      "outputs": [],
      "stateMutability": "nonpayable",
      "type": "function"
    },
    {
      "inputs": [
        {
          "internalType": "uint256",
          "name": "_jobId",
          "type": "uint256"
        },
        {
          "internalType": "address",
          "name": "_candidateAddress",
          "type": "address"
        }
      ],
      "name": "sendOffer",
      "outputs": [],
      "stateMutability": "nonpayable",
      "type": "function"
    },
    {
      "inputs": [
        {
          "internalType": "address",
          "name": "_candidateAddress",
          "type": "address"
        }
      ],
      "name": "verifyCandidate",
      "outputs": [],
      "stateMutability": "nonpayable",
      "type": "function"
    },
    {
      "inputs": [
        {
          "internalType": "address",
          "name": "_candidateAddress",
          "type": "address"
        }
      ],
      "name": "viewCandidate",
      "outputs": [
        {
          "internalType": "string",
          "name": "",
          "type": "string"
        },
        {
          "internalType": "string",
          "name": "",
          "type": "string"
        },
        {
          "internalType": "string",
          "name": "",
          "type": "string"
        },
        {
          "internalType": "string",
          "name": "",
          "type": "string"
        },
        {
          "internalType": "bool",
          "name": "",
          "type": "bool"
        },
        {
          "internalType": "bool",
          "name": "",
          "type": "bool"
        }
      ],
      "stateMutability": "view",
      "type": "function"
    }
  ],
  "bytecode": "0x60806040526001600755348015601457600080fd5b50336000806101000a81548173ffffffffffffffffffffffffffffffffffffffff021916908373ffffffffffffffffffffffffffffffffffffffff160217905550612ca0806100646000396000f3fe608060405234801561001057600080fd5b50600436106101215760003560e01c8063969dda34116100ad578063d55d73c511610071578063d55d73c51461032f578063d9e61b0e1461035f578063e0c94ae51461038f578063e1da83be146103ab578063eb62df61146103c757610121565b8063969dda3414610286578063a01e5676146102a2578063a1655278146102be578063b0c2aa5e146102dc578063cba4849c146102fa57610121565b806347eaa1d9116100f457806347eaa1d9146101db5780637aff6f91146101f95780638ab66a90146102155780638da5cb5b1461024a578063965a79fb1461026857610121565b8063180aedf3146101265780632e6997fe1461015a578063413bf38f146101785780634162cc88146101ab575b600080fd5b610140600480360381019061013b9190611d53565b6103d1565b604051610151959493929190611e7b565b60405180910390f35b610162610544565b60405161016f9190611f9a565b60405180910390f35b610192600480360381019061018d9190611fe8565b6105d2565b6040516101a29493929190612015565b60405180910390f35b6101c560048036038101906101c09190611d53565b61063c565b6040516101d2919061205a565b60405180910390f35b6101e3610660565b6040516101f09190611f9a565b60405180910390f35b610213600480360381019061020e91906121aa565b6108c4565b005b61022f600480360381019061022a9190611fe8565b610b04565b60405161024196959493929190612281565b60405180910390f35b610252610d7a565b60405161025f91906122fe565b60405180910390f35b610270610d9e565b60405161027d91906123d7565b60405180910390f35b6102a0600480360381019061029b9190611fe8565b610df6565b005b6102bc60048036038101906102b791906123f9565b610fa9565b005b6102c66111b0565b6040516102d39190611f9a565b60405180910390f35b6102e461123e565b6040516102f1919061205a565b60405180910390f35b610314600480360381019061030f9190611fe8565b611244565b60405161032696959493929190612281565b60405180910390f35b61034960048036038101906103449190611d53565b61154d565b60405161035691906122fe565b60405180910390f35b61037960048036038101906103749190611d53565b61158c565b60405161038691906122fe565b60405180910390f35b6103a960048036038101906103a49190611d53565b6115cb565b005b6103c560048036038101906103c09190612471565b6116f9565b005b6103cf611a29565b005b60026020528060005260406000206000915090508060000154908060010180546103fa906124e0565b80601f0160208091040260200160405190810160405280929190818152602001828054610426906124e0565b80156104735780601f1061044857610100808354040283529160200191610473565b820191906000526020600020905b81548152906001019060200180831161045657829003601f168201915b505050505090806002018054610488906124e0565b80601f01602080910402602001604051908101604052809291908181526020018280546104b4906124e0565b80156105015780601f106104d657610100808354040283529160200191610501565b820191906000526020600020905b8154815290600101906020018083116104e457829003601f168201915b5050505050908060030160009054906101000a900473ffffffffffffffffffffffffffffffffffffffff16908060030160149054906101000a900460ff16905085565b606060048054806020026020016040519081016040528092919081815260200182805480156105c857602002820191906000526020600020905b8160009054906101000a900473ffffffffffffffffffffffffffffffffffffffff1673ffffffffffffffffffffffffffffffffffffffff168152602001906001019080831161057e575b5050505050905090565b60036020528060005260406000206000915090508060000154908060010160009054906101000a900473ffffffffffffffffffffffffffffffffffffffff16908060010160149054906101000a900460ff16908060010160159054906101000a900460ff16905084565b6005818154811061064c57600080fd5b906000526020600020016000915090505481565b60606000805b60048054905081101561072257600160006004838154811061068b5761068a612511565b5b9060005260206000200160009054906101000a900473ffffffffffffffffffffffffffffffffffffffff1673ffffffffffffffffffffffffffffffffffffffff1673ffffffffffffffffffffffffffffffffffffffff16815260200190815260200160002060040160009054906101000a900460ff16156107155781806107119061256f565b9250505b8080600101915050610666565b5060008167ffffffffffffffff81111561073f5761073e61207f565b5b60405190808252806020026020018201604052801561076d5781602001602082028036833780820191505090505b5090506000805b6004805490508110156108ba57600160006004838154811061079957610798612511565b5b9060005260206000200160009054906101000a900473ffffffffffffffffffffffffffffffffffffffff1673ffffffffffffffffffffffffffffffffffffffff1673ffffffffffffffffffffffffffffffffffffffff16815260200190815260200160002060040160009054906101000a900460ff16156108ad576004818154811061082857610827612511565b5b9060005260206000200160009054906101000a900473ffffffffffffffffffffffffffffffffffffffff1683838061085f9061256f565b94508151811061087257610871612511565b5b602002602001019073ffffffffffffffffffffffffffffffffffffffff16908173ffffffffffffffffffffffffffffffffffffffff16815250505b8080600101915050610774565b5081935050505090565b6000600160003373ffffffffffffffffffffffffffffffffffffffff1673ffffffffffffffffffffffffffffffffffffffff1681526020019081526020016000206000018054610913906124e0565b905014610955576040517f08c379a000000000000000000000000000000000000000000000000000000000815260040161094c90612603565b60405180910390fd5b6040518060c0016040528085815260200184815260200183815260200182815260200160001515815260200160001515815250600160003373ffffffffffffffffffffffffffffffffffffffff1673ffffffffffffffffffffffffffffffffffffffff16815260200190815260200160002060008201518160000190816109dc91906127cf565b5060208201518160010190816109f291906127cf565b506040820151816002019081610a0891906127cf565b506060820151816003019081610a1e91906127cf565b5060808201518160040160006101000a81548160ff02191690831515021790555060a08201518160040160016101000a81548160ff0219169083151502179055509050506004339080600181540180825580915050600190039060005260206000200160009091909190916101000a81548173ffffffffffffffffffffffffffffffffffffffff021916908373ffffffffffffffffffffffffffffffffffffffff1602179055507ff7d573e0e0f72259d79708ef22494ecdc00dd3605de228ff1a79063d7547b7c23385604051610af69291906128a1565b60405180910390a150505050565b6001602052806000526040600020600091509050806000018054610b27906124e0565b80601f0160208091040260200160405190810160405280929190818152602001828054610b53906124e0565b8015610ba05780601f10610b7557610100808354040283529160200191610ba0565b820191906000526020600020905b815481529060010190602001808311610b8357829003601f168201915b505050505090806001018054610bb5906124e0565b80601f0160208091040260200160405190810160405280929190818152602001828054610be1906124e0565b8015610c2e5780601f10610c0357610100808354040283529160200191610c2e565b820191906000526020600020905b815481529060010190602001808311610c1157829003601f168201915b505050505090806002018054610c43906124e0565b80601f0160208091040260200160405190810160405280929190818152602001828054610c6f906124e0565b8015610cbc5780601f10610c9157610100808354040283529160200191610cbc565b820191906000526020600020905b815481529060010190602001808311610c9f57829003601f168201915b505050505090806003018054610cd1906124e0565b80601f0160208091040260200160405190810160405280929190818152602001828054610cfd906124e0565b8015610d4a5780601f10610d1f57610100808354040283529160200191610d4a565b820191906000526020600020905b815481529060010190602001808311610d2d57829003601f168201915b5050505050908060040160009054906101000a900460ff16908060040160019054906101000a900460ff16905086565b60008054906101000a900473ffffffffffffffffffffffffffffffffffffffff1681565b60606005805480602002602001604051908101604052809291908181526020018280548015610dec57602002820191906000526020600020905b815481526020019060010190808311610dd8575b5050505050905090565b60008054906101000a900473ffffffffffffffffffffffffffffffffffffffff1673ffffffffffffffffffffffffffffffffffffffff163373ffffffffffffffffffffffffffffffffffffffff1614610e84576040517f08c379a0000000000000000000000000000000000000000000000000000000008152600401610e7b90612943565b60405180910390fd5b6000600160008373ffffffffffffffffffffffffffffffffffffffff1673ffffffffffffffffffffffffffffffffffffffff1681526020019081526020016000206000018054610ed3906124e0565b905003610f15576040517f08c379a0000000000000000000000000000000000000000000000000000000008152600401610f0c906129af565b60405180910390fd5b60018060008373ffffffffffffffffffffffffffffffffffffffff1673ffffffffffffffffffffffffffffffffffffffff16815260200190815260200160002060040160006101000a81548160ff0219169083151502179055507f52a7aecc02f5cc2a738f2f3a8db248b68ef20fe0a56955f2bf6dd61b80d29b8781604051610f9e91906122fe565b60405180910390a150565b60008054906101000a900473ffffffffffffffffffffffffffffffffffffffff1673ffffffffffffffffffffffffffffffffffffffff163373ffffffffffffffffffffffffffffffffffffffff1614611037576040517f08c379a000000000000000000000000000000000000000000000000000000000815260040161102e90612943565b60405180910390fd5b6040518060a0016040528060075481526020018381526020018281526020013373ffffffffffffffffffffffffffffffffffffffff168152602001600115158152506002600060075481526020019081526020016000206000820151816000015560208201518160010190816110ad91906127cf565b5060408201518160020190816110c391906127cf565b5060608201518160030160006101000a81548173ffffffffffffffffffffffffffffffffffffffff021916908373ffffffffffffffffffffffffffffffffffffffff16021790555060808201518160030160146101000a81548160ff021916908315150217905550905050600560075490806001815401808255809150506001900390600052602060002001600090919091909150557f7949b39d704038fb84fd3c53f76b9c855172c9fa4f7463e0643b8bc0819e03756007548360405161118c9291906129cf565b60405180910390a1600760008154809291906111a79061256f565b91905055505050565b6060600680548060200260200160405190810160405280929190818152602001828054801561123457602002820191906000526020600020905b8160009054906101000a900473ffffffffffffffffffffffffffffffffffffffff1673ffffffffffffffffffffffffffffffffffffffff16815260200190600101908083116111ea575b5050505050905090565b60075481565b6060806060806000806000600160008973ffffffffffffffffffffffffffffffffffffffff1673ffffffffffffffffffffffffffffffffffffffff1681526020019081526020016000206040518060c00160405290816000820180546112a9906124e0565b80601f01602080910402602001604051908101604052809291908181526020018280546112d5906124e0565b80156113225780601f106112f757610100808354040283529160200191611322565b820191906000526020600020905b81548152906001019060200180831161130557829003601f168201915b5050505050815260200160018201805461133b906124e0565b80601f0160208091040260200160405190810160405280929190818152602001828054611367906124e0565b80156113b45780601f10611389576101008083540402835291602001916113b4565b820191906000526020600020905b81548152906001019060200180831161139757829003601f168201915b505050505081526020016002820180546113cd906124e0565b80601f01602080910402602001604051908101604052809291908181526020018280546113f9906124e0565b80156114465780601f1061141b57610100808354040283529160200191611446565b820191906000526020600020905b81548152906001019060200180831161142957829003601f168201915b5050505050815260200160038201805461145f906124e0565b80601f016020809104026020016040519081016040528092919081815260200182805461148b906124e0565b80156114d85780601f106114ad576101008083540402835291602001916114d8565b820191906000526020600020905b8154815290600101906020018083116114bb57829003601f168201915b505050505081526020016004820160009054906101000a900460ff161515151581526020016004820160019054906101000a900460ff1615151515815250509050806000015181602001518260400151836060015184608001518560a001519650965096509650965096505091939550919395565b6004818154811061155d57600080fd5b906000526020600020016000915054906101000a900473ffffffffffffffffffffffffffffffffffffffff1681565b6006818154811061159c57600080fd5b906000526020600020016000915054906101000a900473ffffffffffffffffffffffffffffffffffffffff1681565b600160003373ffffffffffffffffffffffffffffffffffffffff1673ffffffffffffffffffffffffffffffffffffffff16815260200190815260200160002060040160009054906101000a900460ff1661165a576040517f08c379a000000000000000000000000000000000000000000000000000000000815260040161165190612a71565b60405180910390fd5b6002600082815260200190815260200160002060030160149054906101000a900460ff166116bd576040517f08c379a00000000000000000000000000000000000000000000000000000000081526004016116b490612add565b60405180910390fd5b7fffa837d183240a5f25cbd643a8eade702c0c9c3e186c59c7d929e4f1a3438d8681336040516116ee929190612afd565b60405180910390a150565b60008054906101000a900473ffffffffffffffffffffffffffffffffffffffff1673ffffffffffffffffffffffffffffffffffffffff163373ffffffffffffffffffffffffffffffffffffffff1614611787576040517f08c379a000000000000000000000000000000000000000000000000000000000815260040161177e90612943565b60405180910390fd5b6002600083815260200190815260200160002060030160149054906101000a900460ff166117ea576040517f08c379a00000000000000000000000000000000000000000000000000000000081526004016117e190612add565b60405180910390fd5b600160008273ffffffffffffffffffffffffffffffffffffffff1673ffffffffffffffffffffffffffffffffffffffff16815260200190815260200160002060040160009054906101000a900460ff16611879576040517f08c379a000000000000000000000000000000000000000000000000000000000815260040161187090612b72565b60405180910390fd5b60405180608001604052808381526020018273ffffffffffffffffffffffffffffffffffffffff16815260200160011515815260200160001515815250600360008373ffffffffffffffffffffffffffffffffffffffff1673ffffffffffffffffffffffffffffffffffffffff1681526020019081526020016000206000820151816000015560208201518160010160006101000a81548173ffffffffffffffffffffffffffffffffffffffff021916908373ffffffffffffffffffffffffffffffffffffffff16021790555060408201518160010160146101000a81548160ff02191690831515021790555060608201518160010160156101000a81548160ff0219169083151502179055509050506006819080600181540180825580915050600190039060005260206000200160009091909190916101000a81548173ffffffffffffffffffffffffffffffffffffffff021916908373ffffffffffffffffffffffffffffffffffffffff1602179055507f27d9b4097af9b588b7ce5c1fae79f7d2798678748d30a2009b05cde0979d7bfc8282604051611a1d929190612afd565b60405180910390a15050565b600160003373ffffffffffffffffffffffffffffffffffffffff1673ffffffffffffffffffffffffffffffffffffffff16815260200190815260200160002060040160009054906101000a900460ff16611ab8576040517f08c379a0000000000000000000000000000000000000000000000000000000008152600401611aaf90612a71565b60405180910390fd5b600360003373ffffffffffffffffffffffffffffffffffffffff1673ffffffffffffffffffffffffffffffffffffffff16815260200190815260200160002060010160149054906101000a900460ff16611b47576040517f08c379a0000000000000000000000000000000000000000000000000000000008152600401611b3e90612bde565b60405180910390fd5b600360003373ffffffffffffffffffffffffffffffffffffffff1673ffffffffffffffffffffffffffffffffffffffff16815260200190815260200160002060010160159054906101000a900460ff1615611bd7576040517f08c379a0000000000000000000000000000000000000000000000000000000008152600401611bce90612c4a565b60405180910390fd5b6001600360003373ffffffffffffffffffffffffffffffffffffffff1673ffffffffffffffffffffffffffffffffffffffff16815260200190815260200160002060010160156101000a81548160ff02191690831515021790555060018060003373ffffffffffffffffffffffffffffffffffffffff1673ffffffffffffffffffffffffffffffffffffffff16815260200190815260200160002060040160016101000a81548160ff0219169083151502179055507fa7a40af5a1d0c10a3eb94af90cb008170915e8a71a6aaff052794cd762c72fc0600360003373ffffffffffffffffffffffffffffffffffffffff1673ffffffffffffffffffffffffffffffffffffffff1681526020019081526020016000206000015433604051611cff929190612afd565b60405180910390a1565b6000604051905090565b600080fd5b600080fd5b6000819050919050565b611d3081611d1d565b8114611d3b57600080fd5b50565b600081359050611d4d81611d27565b92915050565b600060208284031215611d6957611d68611d13565b5b6000611d7784828501611d3e565b91505092915050565b611d8981611d1d565b82525050565b600081519050919050565b600082825260208201905092915050565b60005b83811015611dc9578082015181840152602081019050611dae565b60008484015250505050565b6000601f19601f8301169050919050565b6000611df182611d8f565b611dfb8185611d9a565b9350611e0b818560208601611dab565b611e1481611dd5565b840191505092915050565b600073ffffffffffffffffffffffffffffffffffffffff82169050919050565b6000611e4a82611e1f565b9050919050565b611e5a81611e3f565b82525050565b60008115159050919050565b611e7581611e60565b82525050565b600060a082019050611e906000830188611d80565b8181036020830152611ea28187611de6565b90508181036040830152611eb68186611de6565b9050611ec56060830185611e51565b611ed26080830184611e6c565b9695505050505050565b600081519050919050565b600082825260208201905092915050565b6000819050602082019050919050565b611f1181611e3f565b82525050565b6000611f238383611f08565b60208301905092915050565b6000602082019050919050565b6000611f4782611edc565b611f518185611ee7565b9350611f5c83611ef8565b8060005b83811015611f8d578151611f748882611f17565b9750611f7f83611f2f565b925050600181019050611f60565b5085935050505092915050565b60006020820190508181036000830152611fb48184611f3c565b905092915050565b611fc581611e3f565b8114611fd057600080fd5b50565b600081359050611fe281611fbc565b92915050565b600060208284031215611ffe57611ffd611d13565b5b600061200c84828501611fd3565b91505092915050565b600060808201905061202a6000830187611d80565b6120376020830186611e51565b6120446040830185611e6c565b6120516060830184611e6c565b95945050505050565b600060208201905061206f6000830184611d80565b92915050565b600080fd5b600080fd5b7f4e487b7100000000000000000000000000000000000000000000000000000000600052604160045260246000fd5b6120b782611dd5565b810181811067ffffffffffffffff821117156120d6576120d561207f565b5b80604052505050565b60006120e9611d09565b90506120f582826120ae565b919050565b600067ffffffffffffffff8211156121155761211461207f565b5b61211e82611dd5565b9050602081019050919050565b82818337600083830152505050565b600061214d612148846120fa565b6120df565b9050828152602081018484840111156121695761216861207a565b5b61217484828561212b565b509392505050565b600082601f83011261219157612190612075565b5b81356121a184826020860161213a565b91505092915050565b600080600080608085870312156121c4576121c3611d13565b5b600085013567ffffffffffffffff8111156121e2576121e1611d18565b5b6121ee8782880161217c565b945050602085013567ffffffffffffffff81111561220f5761220e611d18565b5b61221b8782880161217c565b935050604085013567ffffffffffffffff81111561223c5761223b611d18565b5b6122488782880161217c565b925050606085013567ffffffffffffffff81111561226957612268611d18565b5b6122758782880161217c565b91505092959194509250565b600060c082019050818103600083015261229b8189611de6565b905081810360208301526122af8188611de6565b905081810360408301526122c38187611de6565b905081810360608301526122d78186611de6565b90506122e66080830185611e6c565b6122f360a0830184611e6c565b979650505050505050565b60006020820190506123136000830184611e51565b92915050565b600081519050919050565b600082825260208201905092915050565b6000819050602082019050919050565b61234e81611d1d565b82525050565b60006123608383612345565b60208301905092915050565b6000602082019050919050565b600061238482612319565b61238e8185612324565b935061239983612335565b8060005b838110156123ca5781516123b18882612354565b97506123bc8361236c565b92505060018101905061239d565b5085935050505092915050565b600060208201905081810360008301526123f18184612379565b905092915050565b600080604083850312156124105761240f611d13565b5b600083013567ffffffffffffffff81111561242e5761242d611d18565b5b61243a8582860161217c565b925050602083013567ffffffffffffffff81111561245b5761245a611d18565b5b6124678582860161217c565b9150509250929050565b6000806040838503121561248857612487611d13565b5b600061249685828601611d3e565b92505060206124a785828601611fd3565b9150509250929050565b7f4e487b7100000000000000000000000000000000000000000000000000000000600052602260045260246000fd5b600060028204905060018216806124f857607f821691505b60208210810361250b5761250a6124b1565b5b50919050565b7f4e487b7100000000000000000000000000000000000000000000000000000000600052603260045260246000fd5b7f4e487b7100000000000000000000000000000000000000000000000000000000600052601160045260246000fd5b600061257a82611d1d565b91507fffffffffffffffffffffffffffffffffffffffffffffffffffffffffffffffff82036125ac576125ab612540565b5b600182019050919050565b7f416c726561647920726567697374657265640000000000000000000000000000600082015250565b60006125ed601283611d9a565b91506125f8826125b7565b602082019050919050565b6000602082019050818103600083015261261c816125e0565b9050919050565b60008190508160005260206000209050919050565b60006020601f8301049050919050565b600082821b905092915050565b6000600883026126857fffffffffffffffffffffffffffffffffffffffffffffffffffffffffffffffff82612648565b61268f8683612648565b95508019841693508086168417925050509392505050565b6000819050919050565b60006126cc6126c76126c284611d1d565b6126a7565b611d1d565b9050919050565b6000819050919050565b6126e6836126b1565b6126fa6126f2826126d3565b848454612655565b825550505050565b600090565b61270f612702565b61271a8184846126dd565b505050565b5b8181101561273e57612733600082612707565b600181019050612720565b5050565b601f8211156127835761275481612623565b61275d84612638565b8101602085101561276c578190505b61278061277885612638565b83018261271f565b50505b505050565b600082821c905092915050565b60006127a660001984600802612788565b1980831691505092915050565b60006127bf8383612795565b9150826002028217905092915050565b6127d882611d8f565b67ffffffffffffffff8111156127f1576127f061207f565b5b6127fb82546124e0565b612806828285612742565b600060209050601f8311600181146128395760008415612827578287015190505b61283185826127b3565b865550612899565b601f19841661284786612623565b60005b8281101561286f5784890151825560018201915060208501945060208101905061284a565b8683101561288c5784890151612888601f891682612795565b8355505b6001600288020188555050505b505050505050565b60006040820190506128b66000830185611e51565b81810360208301526128c88184611de6565b90509392505050565b7f4f6e6c792061646d696e2063616e20706572666f726d2074686973206163746960008201527f6f6e000000000000000000000000000000000000000000000000000000000000602082015250565b600061292d602283611d9a565b9150612938826128d1565b604082019050919050565b6000602082019050818103600083015261295c81612920565b9050919050565b7f43616e646964617465206e6f7420666f756e6400000000000000000000000000600082015250565b6000612999601383611d9a565b91506129a482612963565b602082019050919050565b600060208201905081810360008301526129c88161298c565b9050919050565b60006040820190506129e46000830185611d80565b81810360208301526129f68184611de6565b90509392505050565b7f4f6e6c792076657269666965642063616e646964617465732063616e2070657260008201527f666f726d207468697320616374696f6e00000000000000000000000000000000602082015250565b6000612a5b603083611d9a565b9150612a66826129ff565b604082019050919050565b60006020820190508181036000830152612a8a81612a4e565b9050919050565b7f4a6f62206e6f7420616374697665000000000000000000000000000000000000600082015250565b6000612ac7600e83611d9a565b9150612ad282612a91565b602082019050919050565b60006020820190508181036000830152612af681612aba565b9050919050565b6000604082019050612b126000830185611d80565b612b1f6020830184611e51565b9392505050565b7f43616e646964617465206e6f7420766572696669656400000000000000000000600082015250565b6000612b5c601683611d9a565b9150612b6782612b26565b602082019050919050565b60006020820190508181036000830152612b8b81612b4f565b9050919050565b7f4e6f206f66666572206d61646520746f20796f75000000000000000000000000600082015250565b6000612bc8601483611d9a565b9150612bd382612b92565b602082019050919050565b60006020820190508181036000830152612bf781612bbb565b9050919050565b7f4f6666657220616c726561647920616363657074656400000000000000000000600082015250565b6000612c34601683611d9a565b9150612c3f82612bfe565b602082019050919050565b60006020820190508181036000830152612c6381612c27565b905091905056fea264697066735822122094c86cc5844e6e30e3908da1f7a3da1e261501d606738c54237e10341046b0d164736f6c634300081c0033",
  "linkReferences": {},
  "deployedLinkReferences": {}
}