{
  "_format": "hh-sol-artifact-1",
  "contractName": "EHiringSystem",
  "sourceName": "contracts/EHiringSystem.sol",
  "abi": [
    {
      "inputs": [],
      "stateMutability": "nonpayable",
      "type": "constructor"
    },
    {
      "anonymous": false,
      "inputs": [
        {
          "indexed": false,
          "internalType": "address",
          "name": "candidateAddress",
          "type": "address"
        },
        {
          "indexed": false,
          "internalType": "string",
          "name": "fullName",
          "type": "string"
        }
      ],
      "name": "CandidateRegistered",
      "type": "event"
    },
    {
      "anonymous": false,
      "inputs": [
        {
          "indexed": false,
          "internalType": "address",
          "name": "candidateAddress",
          "type": "address"
        }
      ],
      "name": "CandidateVerified",
      "type": "event"
    },
    {
      "anonymous": false,
      "inputs": [
        {
          "indexed": false,
          "internalType": "uint256",
          "name": "jobId",
          "type": "uint256"
        },
        {
          "indexed": false,
          "internalType": "address",
          "name": "candidateAddress",
          "type": "address"
        }
      ],
      "name": "JobApplied",
      "type": "event"
    },
    {
      "anonymous": false,
      "inputs": [
        {
          "indexed": false,
          "internalType": "uint256",
          "name": "jobId",
          "type": "uint256"
        },
        {
          "indexed": false,
          "internalType": "string",
          "name": "title",
          "type": "string"
        }
      ],
      "name": "JobPosted",
      "type": "event"
    },
    {
      "anonymous": false,
      "inputs": [
        {
          "indexed": false,
          "internalType": "uint256",
          "name": "jobId",
          "type": "uint256"
        },
        {
          "indexed": false,
          "internalType": "address",
          "name": "candidateAddress",
          "type": "address"
        }
      ],
      "name": "OfferAccepted",
      "type": "event"
    },
    {
      "anonymous": false,
      "inputs": [
        {
          "indexed": false,
          "internalType": "uint256",
          "name": "jobId",
          "type": "uint256"
        },
        {
          "indexed": false,
          "internalType": "address",
          "name": "candidateAddress",
          "type": "address"
        }
      ],
      "name": "OfferMade",
      "type": "event"
    },
    {
      "inputs": [],
      "name": "acceptOffer",
      "outputs": [],
      "stateMutability": "nonpayable",
      "type": "function"
    },
    {
      "inputs": [
        {
          "internalType": "uint256",
          "name": "_jobId",
          "type": "uint256"
        }
      ],
      "name": "applyForJob",
      "outputs": [],
      "stateMutability": "nonpayable",
      "type": "function"
    },
    {
      "inputs": [
        {
          "internalType": "address",
          "name": "",
          "type": "address"
        }
      ],
      "name": "candidates",
      "outputs": [
        {
          "internalType": "string",
          "name": "fullName",
          "type": "string"
        },
        {
          "internalType": "string",
          "name": "email",
          "type": "string"
        },
        {
          "internalType": "string",
          "name": "education",
          "type": "string"
        },
        {
          "internalType": "string",
          "name": "experience",
          "type": "string"
        },
        {
          "internalType": "bool",
          "name": "isVerified",
          "type": "bool"
        },
        {
          "internalType": "bool",
          "name": "isEmployee",
          "type": "bool"
        }
      ],
      "stateMutability": "view",
      "type": "function"
    },
    {
      "inputs": [
        {
          "internalType": "uint256",
          "name": "",
          "type": "uint256"
        }
      ],
      "name": "jobs",
      "outputs": [
        {
          "internalType": "uint256",
          "name": "jobId",
          "type": "uint256"
        },
        {
          "internalType": "string",
          "name": "title",
          "type": "string"
        },
        {
          "internalType": "string",
          "name": "description",
          "type": "string"
        },
        {
          "internalType": "address",
          "name": "postedBy",
          "type": "address"
        },
        {
          "internalType": "bool",
          "name": "isActive",
          "type": "bool"
        }
      ],
      "stateMutability": "view",
      "type": "function"
    },
    {
      "inputs": [],
      "name": "nextJobId",
      "outputs": [
        {
          "internalType": "uint256",
          "name": "",
          "type": "uint256"
        }
      ],
      "stateMutability": "view",
      "type": "function"
    },
    {
      "inputs": [
        {
          "internalType": "address",
          "name": "",
          "type": "address"
        }
      ],
      "name": "offers",
      "outputs": [
        {
          "internalType": "uint256",
          "name": "jobId",
          "type": "uint256"
        },
        {
          "internalType": "address",
          "name": "candidateAddress",
          "type": "address"
        },
        {
          "internalType": "bool",
          "name": "isOffered",
          "type": "bool"
        },
        {
          "internalType": "bool",
          "name": "isAccepted",
          "type": "bool"
        }
      ],
      "stateMutability": "view",
      "type": "function"
    },
    {
      "inputs": [],
      "name": "owner",
      "outputs": [
        {
          "internalType": "address",
          "name": "",
          "type": "address"
        }
      ],
      "stateMutability": "view",
      "type": "function"
    },
    {
      "inputs": [
        {
          "internalType": "string",
          "name": "_title",
          "type": "string"
        },
        {
          "internalType": "string",
          "name": "_description",
          "type": "string"
        }
      ],
      "name": "postJob",
      "outputs": [],
      "stateMutability": "nonpayable",
      "type": "function"
    },
    {
      "inputs": [
        {
          "internalType": "string",
          "name": "_fullName",
          "type": "string"
        },
        {
          "internalType": "string",
          "name": "_email",
          "type": "string"
        },
        {
          "internalType": "string",
          "name": "_education",
          "type": "string"
        },
        {
          "internalType": "string",
          "name": "_experience",
          "type": "string"
        }
      ],
      "name": "registerCandidate",
      "outputs": [],
      "stateMutability": "nonpayable",
      "type": "function"
    },
    {
      "inputs": [
        {
          "internalType": "uint256",
          "name": "_jobId",
          "type": "uint256"
        },
        {
          "internalType": "address",
          "name": "_candidateAddress",
          "type": "address"
        }
      ],
      "name": "sendOffer",
      "outputs": [],
      "stateMutability": "nonpayable",
      "type": "function"
    },
    {
      "inputs": [
        {
          "internalType": "address",
          "name": "_candidateAddress",
          "type": "address"
        }
      ],
      "name": "verifyCandidate",
      "outputs": [],
      "stateMutability": "nonpayable",
      "type": "function"
    },
    {
      "inputs": [
        {
          "internalType": "address",
          "name": "_candidateAddress",
          "type": "address"
        }
      ],
      "name": "viewCandidate",
      "outputs": [
        {
          "internalType": "string",
          "name": "",
          "type": "string"
        },
        {
          "internalType": "string",
          "name": "",
          "type": "string"
        },
        {
          "internalType": "string",
          "name": "",
          "type": "string"
        },
        {
          "internalType": "string",
          "name": "",
          "type": "string"
        },
        {
          "internalType": "bool",
          "name": "",
          "type": "bool"
        },
        {
          "internalType": "bool",
          "name": "",
          "type": "bool"
        }
      ],
      "stateMutability": "view",
      "type": "function"
    }
  ],
  "bytecode": "0x60806040526001600455348015601457600080fd5b50336000806101000a81548173ffffffffffffffffffffffffffffffffffffffff021916908373ffffffffffffffffffffffffffffffffffffffff1602179055506123d1806100646000396000f3fe608060405234801561001057600080fd5b50600436106100b45760003560e01c8063a01e567611610071578063a01e5676146101ab578063b0c2aa5e146101c7578063cba4849c146101e5578063e0c94ae51461021a578063e1da83be14610236578063eb62df6114610252576100b4565b8063180aedf3146100b9578063413bf38f146100ed5780637aff6f91146101205780638ab66a901461013c5780638da5cb5b14610171578063969dda341461018f575b600080fd5b6100d360048036038101906100ce9190611673565b61025c565b6040516100e495949392919061179b565b60405180910390f35b61010760048036038101906101029190611828565b6103cf565b6040516101179493929190611855565b60405180910390f35b61013a600480360381019061013591906119cf565b610439565b005b61015660048036038101906101519190611828565b610616565b60405161016896959493929190611aa6565b60405180910390f35b61017961088c565b6040516101869190611b23565b60405180910390f35b6101a960048036038101906101a49190611828565b6108b0565b005b6101c560048036038101906101c09190611b3e565b610a63565b005b6101cf610c3f565b6040516101dc9190611bb6565b60405180910390f35b6101ff60048036038101906101fa9190611828565b610c45565b60405161021196959493929190611aa6565b60405180910390f35b610234600480360381019061022f9190611673565b610f4e565b005b610250600480360381019061024b9190611bd1565b61107c565b005b61025a611349565b005b600260205280600052604060002060009150905080600001549080600101805461028590611c40565b80601f01602080910402602001604051908101604052809291908181526020018280546102b190611c40565b80156102fe5780601f106102d3576101008083540402835291602001916102fe565b820191906000526020600020905b8154815290600101906020018083116102e157829003601f168201915b50505050509080600201805461031390611c40565b80601f016020809104026020016040519081016040528092919081815260200182805461033f90611c40565b801561038c5780601f106103615761010080835404028352916020019161038c565b820191906000526020600020905b81548152906001019060200180831161036f57829003601f168201915b5050505050908060030160009054906101000a900473ffffffffffffffffffffffffffffffffffffffff16908060030160149054906101000a900460ff16905085565b60036020528060005260406000206000915090508060000154908060010160009054906101000a900473ffffffffffffffffffffffffffffffffffffffff16908060010160149054906101000a900460ff16908060010160159054906101000a900460ff16905084565b6000600160003373ffffffffffffffffffffffffffffffffffffffff1673ffffffffffffffffffffffffffffffffffffffff168152602001908152602001600020600001805461048890611c40565b9050146104ca576040517f08c379a00000000000000000000000000000000000000000000000000000000081526004016104c190611cbd565b60405180910390fd5b6040518060c0016040528085815260200184815260200183815260200182815260200160001515815260200160001515815250600160003373ffffffffffffffffffffffffffffffffffffffff1673ffffffffffffffffffffffffffffffffffffffff16815260200190815260200160002060008201518160000190816105519190611e89565b5060208201518160010190816105679190611e89565b50604082015181600201908161057d9190611e89565b5060608201518160030190816105939190611e89565b5060808201518160040160006101000a81548160ff02191690831515021790555060a08201518160040160016101000a81548160ff0219169083151502179055509050507ff7d573e0e0f72259d79708ef22494ecdc00dd3605de228ff1a79063d7547b7c23385604051610608929190611f5b565b60405180910390a150505050565b600160205280600052604060002060009150905080600001805461063990611c40565b80601f016020809104026020016040519081016040528092919081815260200182805461066590611c40565b80156106b25780601f10610687576101008083540402835291602001916106b2565b820191906000526020600020905b81548152906001019060200180831161069557829003601f168201915b5050505050908060010180546106c790611c40565b80601f01602080910402602001604051908101604052809291908181526020018280546106f390611c40565b80156107405780601f1061071557610100808354040283529160200191610740565b820191906000526020600020905b81548152906001019060200180831161072357829003601f168201915b50505050509080600201805461075590611c40565b80601f016020809104026020016040519081016040528092919081815260200182805461078190611c40565b80156107ce5780601f106107a3576101008083540402835291602001916107ce565b820191906000526020600020905b8154815290600101906020018083116107b157829003601f168201915b5050505050908060030180546107e390611c40565b80601f016020809104026020016040519081016040528092919081815260200182805461080f90611c40565b801561085c5780601f106108315761010080835404028352916020019161085c565b820191906000526020600020905b81548152906001019060200180831161083f57829003601f168201915b5050505050908060040160009054906101000a900460ff16908060040160019054906101000a900460ff16905086565b60008054906101000a900473ffffffffffffffffffffffffffffffffffffffff1681565b60008054906101000a900473ffffffffffffffffffffffffffffffffffffffff1673ffffffffffffffffffffffffffffffffffffffff163373ffffffffffffffffffffffffffffffffffffffff161461093e576040517f08c379a000000000000000000000000000000000000000000000000000000000815260040161093590611ffd565b60405180910390fd5b6000600160008373ffffffffffffffffffffffffffffffffffffffff1673ffffffffffffffffffffffffffffffffffffffff168152602001908152602001600020600001805461098d90611c40565b9050036109cf576040517f08c379a00000000000000000000000000000000000000000000000000000000081526004016109c690612069565b60405180910390fd5b60018060008373ffffffffffffffffffffffffffffffffffffffff1673ffffffffffffffffffffffffffffffffffffffff16815260200190815260200160002060040160006101000a81548160ff0219169083151502179055507f52a7aecc02f5cc2a738f2f3a8db248b68ef20fe0a56955f2bf6dd61b80d29b8781604051610a589190611b23565b60405180910390a150565b60008054906101000a900473ffffffffffffffffffffffffffffffffffffffff1673ffffffffffffffffffffffffffffffffffffffff163373ffffffffffffffffffffffffffffffffffffffff1614610af1576040517f08c379a0000000000000000000000000000000000000000000000000000000008152600401610ae890611ffd565b60405180910390fd5b6040518060a0016040528060045481526020018381526020018281526020013373ffffffffffffffffffffffffffffffffffffffff16815260200160011515815250600260006004548152602001908152602001600020600082015181600001556020820151816001019081610b679190611e89565b506040820151816002019081610b7d9190611e89565b5060608201518160030160006101000a81548173ffffffffffffffffffffffffffffffffffffffff021916908373ffffffffffffffffffffffffffffffffffffffff16021790555060808201518160030160146101000a81548160ff0219169083151502179055509050507f7949b39d704038fb84fd3c53f76b9c855172c9fa4f7463e0643b8bc0819e037560045483604051610c1b929190612089565b60405180910390a160046000815480929190610c36906120e8565b91905055505050565b60045481565b6060806060806000806000600160008973ffffffffffffffffffffffffffffffffffffffff1673ffffffffffffffffffffffffffffffffffffffff1681526020019081526020016000206040518060c0016040529081600082018054610caa90611c40565b80601f0160208091040260200160405190810160405280929190818152602001828054610cd690611c40565b8015610d235780601f10610cf857610100808354040283529160200191610d23565b820191906000526020600020905b815481529060010190602001808311610d0657829003601f168201915b50505050508152602001600182018054610d3c90611c40565b80601f0160208091040260200160405190810160405280929190818152602001828054610d6890611c40565b8015610db55780601f10610d8a57610100808354040283529160200191610db5565b820191906000526020600020905b815481529060010190602001808311610d9857829003601f168201915b50505050508152602001600282018054610dce90611c40565b80601f0160208091040260200160405190810160405280929190818152602001828054610dfa90611c40565b8015610e475780601f10610e1c57610100808354040283529160200191610e47565b820191906000526020600020905b815481529060010190602001808311610e2a57829003601f168201915b50505050508152602001600382018054610e6090611c40565b80601f0160208091040260200160405190810160405280929190818152602001828054610e8c90611c40565b8015610ed95780601f10610eae57610100808354040283529160200191610ed9565b820191906000526020600020905b815481529060010190602001808311610ebc57829003601f168201915b505050505081526020016004820160009054906101000a900460ff161515151581526020016004820160019054906101000a900460ff1615151515815250509050806000015181602001518260400151836060015184608001518560a001519650965096509650965096505091939550919395565b600160003373ffffffffffffffffffffffffffffffffffffffff1673ffffffffffffffffffffffffffffffffffffffff16815260200190815260200160002060040160009054906101000a900460ff16610fdd576040517f08c379a0000000000000000000000000000000000000000000000000000000008152600401610fd4906121a2565b60405180910390fd5b6002600082815260200190815260200160002060030160149054906101000a900460ff16611040576040517f08c379a00000000000000000000000000000000000000000000000000000000081526004016110379061220e565b60405180910390fd5b7fffa837d183240a5f25cbd643a8eade702c0c9c3e186c59c7d929e4f1a3438d86813360405161107192919061222e565b60405180910390a150565b60008054906101000a900473ffffffffffffffffffffffffffffffffffffffff1673ffffffffffffffffffffffffffffffffffffffff163373ffffffffffffffffffffffffffffffffffffffff161461110a576040517f08c379a000000000000000000000000000000000000000000000000000000000815260040161110190611ffd565b60405180910390fd5b6002600083815260200190815260200160002060030160149054906101000a900460ff1661116d576040517f08c379a00000000000000000000000000000000000000000000000000000000081526004016111649061220e565b60405180910390fd5b600160008273ffffffffffffffffffffffffffffffffffffffff1673ffffffffffffffffffffffffffffffffffffffff16815260200190815260200160002060040160009054906101000a900460ff166111fc576040517f08c379a00000000000000000000000000000000000000000000000000000000081526004016111f3906122a3565b60405180910390fd5b60405180608001604052808381526020018273ffffffffffffffffffffffffffffffffffffffff16815260200160011515815260200160001515815250600360008373ffffffffffffffffffffffffffffffffffffffff1673ffffffffffffffffffffffffffffffffffffffff1681526020019081526020016000206000820151816000015560208201518160010160006101000a81548173ffffffffffffffffffffffffffffffffffffffff021916908373ffffffffffffffffffffffffffffffffffffffff16021790555060408201518160010160146101000a81548160ff02191690831515021790555060608201518160010160156101000a81548160ff0219169083151502179055509050507f27d9b4097af9b588b7ce5c1fae79f7d2798678748d30a2009b05cde0979d7bfc828260405161133d92919061222e565b60405180910390a15050565b600160003373ffffffffffffffffffffffffffffffffffffffff1673ffffffffffffffffffffffffffffffffffffffff16815260200190815260200160002060040160009054906101000a900460ff166113d8576040517f08c379a00000000000000000000000000000000000000000000000000000000081526004016113cf906121a2565b60405180910390fd5b600360003373ffffffffffffffffffffffffffffffffffffffff1673ffffffffffffffffffffffffffffffffffffffff16815260200190815260200160002060010160149054906101000a900460ff16611467576040517f08c379a000000000000000000000000000000000000000000000000000000000815260040161145e9061230f565b60405180910390fd5b600360003373ffffffffffffffffffffffffffffffffffffffff1673ffffffffffffffffffffffffffffffffffffffff16815260200190815260200160002060010160159054906101000a900460ff16156114f7576040517f08c379a00000000000000000000000000000000000000000000000000000000081526004016114ee9061237b565b60405180910390fd5b6001600360003373ffffffffffffffffffffffffffffffffffffffff1673ffffffffffffffffffffffffffffffffffffffff16815260200190815260200160002060010160156101000a81548160ff02191690831515021790555060018060003373ffffffffffffffffffffffffffffffffffffffff1673ffffffffffffffffffffffffffffffffffffffff16815260200190815260200160002060040160016101000a81548160ff0219169083151502179055507fa7a40af5a1d0c10a3eb94af90cb008170915e8a71a6aaff052794cd762c72fc0600360003373ffffffffffffffffffffffffffffffffffffffff1673ffffffffffffffffffffffffffffffffffffffff168152602001908152602001600020600001543360405161161f92919061222e565b60405180910390a1565b6000604051905090565b600080fd5b600080fd5b6000819050919050565b6116508161163d565b811461165b57600080fd5b50565b60008135905061166d81611647565b92915050565b60006020828403121561168957611688611633565b5b60006116978482850161165e565b91505092915050565b6116a98161163d565b82525050565b600081519050919050565b600082825260208201905092915050565b60005b838110156116e95780820151818401526020810190506116ce565b60008484015250505050565b6000601f19601f8301169050919050565b6000611711826116af565b61171b81856116ba565b935061172b8185602086016116cb565b611734816116f5565b840191505092915050565b600073ffffffffffffffffffffffffffffffffffffffff82169050919050565b600061176a8261173f565b9050919050565b61177a8161175f565b82525050565b60008115159050919050565b61179581611780565b82525050565b600060a0820190506117b060008301886116a0565b81810360208301526117c28187611706565b905081810360408301526117d68186611706565b90506117e56060830185611771565b6117f2608083018461178c565b9695505050505050565b6118058161175f565b811461181057600080fd5b50565b600081359050611822816117fc565b92915050565b60006020828403121561183e5761183d611633565b5b600061184c84828501611813565b91505092915050565b600060808201905061186a60008301876116a0565b6118776020830186611771565b611884604083018561178c565b611891606083018461178c565b95945050505050565b600080fd5b600080fd5b7f4e487b7100000000000000000000000000000000000000000000000000000000600052604160045260246000fd5b6118dc826116f5565b810181811067ffffffffffffffff821117156118fb576118fa6118a4565b5b80604052505050565b600061190e611629565b905061191a82826118d3565b919050565b600067ffffffffffffffff82111561193a576119396118a4565b5b611943826116f5565b9050602081019050919050565b82818337600083830152505050565b600061197261196d8461191f565b611904565b90508281526020810184848401111561198e5761198d61189f565b5b611999848285611950565b509392505050565b600082601f8301126119b6576119b561189a565b5b81356119c684826020860161195f565b91505092915050565b600080600080608085870312156119e9576119e8611633565b5b600085013567ffffffffffffffff811115611a0757611a06611638565b5b611a13878288016119a1565b945050602085013567ffffffffffffffff811115611a3457611a33611638565b5b611a40878288016119a1565b935050604085013567ffffffffffffffff811115611a6157611a60611638565b5b611a6d878288016119a1565b925050606085013567ffffffffffffffff811115611a8e57611a8d611638565b5b611a9a878288016119a1565b91505092959194509250565b600060c0820190508181036000830152611ac08189611706565b90508181036020830152611ad48188611706565b90508181036040830152611ae88187611706565b90508181036060830152611afc8186611706565b9050611b0b608083018561178c565b611b1860a083018461178c565b979650505050505050565b6000602082019050611b386000830184611771565b92915050565b60008060408385031215611b5557611b54611633565b5b600083013567ffffffffffffffff811115611b7357611b72611638565b5b611b7f858286016119a1565b925050602083013567ffffffffffffffff811115611ba057611b9f611638565b5b611bac858286016119a1565b9150509250929050565b6000602082019050611bcb60008301846116a0565b92915050565b60008060408385031215611be857611be7611633565b5b6000611bf68582860161165e565b9250506020611c0785828601611813565b9150509250929050565b7f4e487b7100000000000000000000000000000000000000000000000000000000600052602260045260246000fd5b60006002820490506001821680611c5857607f821691505b602082108103611c6b57611c6a611c11565b5b50919050565b7f416c726561647920726567697374657265640000000000000000000000000000600082015250565b6000611ca76012836116ba565b9150611cb282611c71565b602082019050919050565b60006020820190508181036000830152611cd681611c9a565b9050919050565b60008190508160005260206000209050919050565b60006020601f8301049050919050565b600082821b905092915050565b600060088302611d3f7fffffffffffffffffffffffffffffffffffffffffffffffffffffffffffffffff82611d02565b611d498683611d02565b95508019841693508086168417925050509392505050565b6000819050919050565b6000611d86611d81611d7c8461163d565b611d61565b61163d565b9050919050565b6000819050919050565b611da083611d6b565b611db4611dac82611d8d565b848454611d0f565b825550505050565b600090565b611dc9611dbc565b611dd4818484611d97565b505050565b5b81811015611df857611ded600082611dc1565b600181019050611dda565b5050565b601f821115611e3d57611e0e81611cdd565b611e1784611cf2565b81016020851015611e26578190505b611e3a611e3285611cf2565b830182611dd9565b50505b505050565b600082821c905092915050565b6000611e6060001984600802611e42565b1980831691505092915050565b6000611e798383611e4f565b9150826002028217905092915050565b611e92826116af565b67ffffffffffffffff811115611eab57611eaa6118a4565b5b611eb58254611c40565b611ec0828285611dfc565b600060209050601f831160018114611ef35760008415611ee1578287015190505b611eeb8582611e6d565b865550611f53565b601f198416611f0186611cdd565b60005b82811015611f2957848901518255600182019150602085019450602081019050611f04565b86831015611f465784890151611f42601f891682611e4f565b8355505b6001600288020188555050505b505050505050565b6000604082019050611f706000830185611771565b8181036020830152611f828184611706565b90509392505050565b7f4f6e6c792061646d696e2063616e20706572666f726d2074686973206163746960008201527f6f6e000000000000000000000000000000000000000000000000000000000000602082015250565b6000611fe76022836116ba565b9150611ff282611f8b565b604082019050919050565b6000602082019050818103600083015261201681611fda565b9050919050565b7f43616e646964617465206e6f7420666f756e6400000000000000000000000000600082015250565b60006120536013836116ba565b915061205e8261201d565b602082019050919050565b6000602082019050818103600083015261208281612046565b9050919050565b600060408201905061209e60008301856116a0565b81810360208301526120b08184611706565b90509392505050565b7f4e487b7100000000000000000000000000000000000000000000000000000000600052601160045260246000fd5b60006120f38261163d565b91507fffffffffffffffffffffffffffffffffffffffffffffffffffffffffffffffff8203612125576121246120b9565b5b600182019050919050565b7f4f6e6c792076657269666965642063616e646964617465732063616e2070657260008201527f666f726d207468697320616374696f6e00000000000000000000000000000000602082015250565b600061218c6030836116ba565b915061219782612130565b604082019050919050565b600060208201905081810360008301526121bb8161217f565b9050919050565b7f4a6f62206e6f7420616374697665000000000000000000000000000000000000600082015250565b60006121f8600e836116ba565b9150612203826121c2565b602082019050919050565b60006020820190508181036000830152612227816121eb565b9050919050565b600060408201905061224360008301856116a0565b6122506020830184611771565b9392505050565b7f43616e646964617465206e6f7420766572696669656400000000000000000000600082015250565b600061228d6016836116ba565b915061229882612257565b602082019050919050565b600060208201905081810360008301526122bc81612280565b9050919050565b7f4e6f206f66666572206d61646520746f20796f75000000000000000000000000600082015250565b60006122f96014836116ba565b9150612304826122c3565b602082019050919050565b60006020820190508181036000830152612328816122ec565b9050919050565b7f4f6666657220616c726561647920616363657074656400000000000000000000600082015250565b60006123656016836116ba565b91506123708261232f565b602082019050919050565b6000602082019050818103600083015261239481612358565b905091905056fea26469706673582212202fd8dc6b1700b13097c39514a5abedc12a134ad996e81fad86027e01c0680db064736f6c634300081c0033",
  "linkReferences": {},
  "deployedLinkReferences": {}
}